{
  "_format": "hh-sol-artifact-1",
  "contractName": "FilForwarder",
  "sourceName": "contracts/FilForwarder.sol",
  "abi": [
    {
      "inputs": [
        {
          "internalType": "bytes",
          "name": "destination",
          "type": "bytes"
        }
      ],
      "name": "forward",
      "outputs": [],
      "stateMutability": "payable",
      "type": "function"
    }
  ],
  "bytecode": "0x608060405234801561001057600080fd5b50611177806100206000396000f3fe60806040526004361061001e5760003560e01c8063d948d46814610023575b600080fd5b61003d6004803603810190610038919061091f565b61003f565b005b61008d82828080601f016020809104026020016040519081016040528093929190818152602001838380828437600081840152601f19601f8201169050808301925050505050505034610091565b5050565b60006100f1600084600067ffffffffffffffff8111156100b4576100b361096c565b5b6040519080825280601f01601f1916602001820160405280156100e65781602001600182028036833780820191505090505b50600086600061014a565b905060006100fe82610451565b90506000815114610144576040517f08c379a000000000000000000000000000000000000000000000000000000000815260040161013b906109f8565b60405180910390fd5b50505050565b6060600060f81b8660008151811061016557610164610a18565b5b602001015160f81c60f81b7effffffffffffffffffffffffffffffffffffffffffffffffffffffffffffff191614806101e15750600160f81b866000815181106101b2576101b1610a18565b5b602001015160f81c60f81b7effffffffffffffffffffffffffffffffffffffffffffffffffffffffffffff1916145b8061022f5750600260f81b86600081518110610200576101ff610a18565b5b602001015160f81c60f81b7effffffffffffffffffffffffffffffffffffffffffffffffffffffffffffff1916145b8061027d5750600360f81b8660008151811061024e5761024d610a18565b5b602001015160f81c60f81b7effffffffffffffffffffffffffffffffffffffffffffffffffffffffffffff1916145b806102cb5750600460f81b8660008151811061029c5761029b610a18565b5b602001015160f81c60f81b7effffffffffffffffffffffffffffffffffffffffffffffffffffffffffffff1916145b61030a576040517f08c379a000000000000000000000000000000000000000000000000000000000815260040161030190610ab9565b60405180910390fd5b60008073fe0000000000000000000000000000000000000373ffffffffffffffffffffffffffffffffffffffff16898686610346576000610349565b60015b898b8d60405160200161036196959493929190610ba5565b60405160208183030381529060405260405161037d9190610c50565b600060405180830381855af49150503d80600081146103b8576040519150601f19603f3d011682016040523d82523d6000602084013e6103bd565b606091505b509150915060011515821515146040518060400160405280601181526020017f6163746f722063616c6c206661696c656400000000000000000000000000000081525090610441576040517f08c379a00000000000000000000000000000000000000000000000000000000081526004016104389190610cab565b60405180910390fd5b5080925050509695505050505050565b606060008060008480602001905181019061046c9190610e21565b925092509250600067ffffffffffffffff168267ffffffffffffffff16036104d75760008151146104d2576040517f08c379a00000000000000000000000000000000000000000000000000000000081526004016104c990610edc565b60405180910390fd5b61059f565b605167ffffffffffffffff168267ffffffffffffffff16148061050e5750607167ffffffffffffffff168267ffffffffffffffff16145b1561055c576000815111610557576040517f08c379a000000000000000000000000000000000000000000000000000000000815260040161054e90610f6e565b60405180910390fd5b61059e565b600061059d576040517f08c379a000000000000000000000000000000000000000000000000000000000815260040161059490610fda565b60405180910390fd5b5b5b600083146105ac846105f9565b906105ed576040517f08c379a00000000000000000000000000000000000000000000000000000000081526004016105e49190610cab565b60405180910390fd5b50809350505050919050565b606060008212156106395761061561061083610669565b610685565b6040516020016106259190611082565b604051602081830303815290604052610662565b61064282610685565b60405160200161065291906110f0565b6040516020818303038152906040525b9050919050565b60008082121561067c578160000361067e565b815b9050919050565b60606000600161069484610753565b01905060008167ffffffffffffffff8111156106b3576106b261096c565b5b6040519080825280601f01601f1916602001820160405280156106e55781602001600182028036833780820191505090505b509050600082602001820190505b600115610748578080600190039150507f3031323334353637383961626364656600000000000000000000000000000000600a86061a8153600a858161073c5761073b611112565b5b049450600085036106f3575b819350505050919050565b600080600090507a184f03e93ff9f4daa797ed6e38ed64bf6a1f01000000000000000083106107b1577a184f03e93ff9f4daa797ed6e38ed64bf6a1f01000000000000000083816107a7576107a6611112565b5b0492506040810190505b6d04ee2d6d415b85acef810000000083106107ee576d04ee2d6d415b85acef810000000083816107e4576107e3611112565b5b0492506020810190505b662386f26fc10000831061081d57662386f26fc10000838161081357610812611112565b5b0492506010810190505b6305f5e1008310610846576305f5e100838161083c5761083b611112565b5b0492506008810190505b612710831061086b57612710838161086157610860611112565b5b0492506004810190505b6064831061088e576064838161088457610883611112565b5b0492506002810190505b600a831061089d576001810190505b80915050919050565b6000604051905090565b600080fd5b600080fd5b600080fd5b600080fd5b600080fd5b60008083601f8401126108df576108de6108ba565b5b8235905067ffffffffffffffff8111156108fc576108fb6108bf565b5b602083019150836001820283011115610918576109176108c4565b5b9250929050565b60008060208385031215610936576109356108b0565b5b600083013567ffffffffffffffff811115610954576109536108b5565b5b610960858286016108c9565b92509250509250929050565b7f4e487b7100000000000000000000000000000000000000000000000000000000600052604160045260246000fd5b600082825260208201905092915050565b7f756e657870656374656420726573706f6e736520726563656976656400000000600082015250565b60006109e2601c8361099b565b91506109ed826109ac565b602082019050919050565b60006020820190508181036000830152610a11816109d5565b9050919050565b7f4e487b7100000000000000000000000000000000000000000000000000000000600052603260045260246000fd5b7f6163746f725f6164647265737320616464726573732073686f756c642062652060008201527f627974657320666f726d61740000000000000000000000000000000000000000602082015250565b6000610aa3602c8361099b565b9150610aae82610a47565b604082019050919050565b60006020820190508181036000830152610ad281610a96565b9050919050565b600067ffffffffffffffff82169050919050565b610af681610ad9565b82525050565b6000819050919050565b610b0f81610afc565b82525050565b600081519050919050565b600082825260208201905092915050565b60005b83811015610b4f578082015181840152602081019050610b34565b60008484015250505050565b6000601f19601f8301169050919050565b6000610b7782610b15565b610b818185610b20565b9350610b91818560208601610b31565b610b9a81610b5b565b840191505092915050565b600060c082019050610bba6000830189610aed565b610bc76020830188610b06565b610bd46040830187610aed565b610be16060830186610aed565b8181036080830152610bf38185610b6c565b905081810360a0830152610c078184610b6c565b9050979650505050505050565b600081905092915050565b6000610c2a82610b15565b610c348185610c14565b9350610c44818560208601610b31565b80840191505092915050565b6000610c5c8284610c1f565b915081905092915050565b600081519050919050565b6000610c7d82610c67565b610c87818561099b565b9350610c97818560208601610b31565b610ca081610b5b565b840191505092915050565b60006020820190508181036000830152610cc58184610c72565b905092915050565b6000819050919050565b610ce081610ccd565b8114610ceb57600080fd5b50565b600081519050610cfd81610cd7565b92915050565b610d0c81610ad9565b8114610d1757600080fd5b50565b600081519050610d2981610d03565b92915050565b600080fd5b610d3d82610b5b565b810181811067ffffffffffffffff82111715610d5c57610d5b61096c565b5b80604052505050565b6000610d6f6108a6565b9050610d7b8282610d34565b919050565b600067ffffffffffffffff821115610d9b57610d9a61096c565b5b610da482610b5b565b9050602081019050919050565b6000610dc4610dbf84610d80565b610d65565b905082815260208101848484011115610de057610ddf610d2f565b5b610deb848285610b31565b509392505050565b600082601f830112610e0857610e076108ba565b5b8151610e18848260208601610db1565b91505092915050565b600080600060608486031215610e3a57610e396108b0565b5b6000610e4886828701610cee565b9350506020610e5986828701610d1a565b925050604084015167ffffffffffffffff811115610e7a57610e796108b5565b5b610e8686828701610df3565b9150509250925092565b7f726573706f6e7365206c656e6774682073686f756c6420626520300000000000600082015250565b6000610ec6601b8361099b565b9150610ed182610e90565b602082019050919050565b60006020820190508181036000830152610ef581610eb9565b9050919050565b7f726573706f6e7365206c656e6774682073686f756c642067726561746572207460008201527f68616e2030000000000000000000000000000000000000000000000000000000602082015250565b6000610f5860258361099b565b9150610f6382610efc565b604082019050919050565b60006020820190508181036000830152610f8781610f4b565b9050919050565b7f696e76616c696420726573706f6e736520636f64656300000000000000000000600082015250565b6000610fc460168361099b565b9150610fcf82610f8e565b602082019050919050565b60006020820190508181036000830152610ff381610fb7565b9050919050565b600081905092915050565b7f6163746f72206572726f7220636f6465202d0000000000000000000000000000600082015250565b600061103b601283610ffa565b915061104682611005565b601282019050919050565b600061105c82610c67565b6110668185610ffa565b9350611076818560208601610b31565b80840191505092915050565b600061108d8261102e565b91506110998284611051565b915081905092915050565b7f6163746f72206572726f7220636f646520000000000000000000000000000000600082015250565b60006110da601183610ffa565b91506110e5826110a4565b601182019050919050565b60006110fb826110cd565b91506111078284611051565b915081905092915050565b7f4e487b7100000000000000000000000000000000000000000000000000000000600052601260045260246000fdfea2646970667358221220aaed4c8187086689c5ad0b0f3e9337c1899fc685b2374972b92f6b9e5c0d518f64736f6c63430008110033",
  "linkReferences": {},
  "deployedLinkReferences": {}
}