{
  "_format": "hh-sol-artifact-1",
  "contractName": "FilForwarder",
  "sourceName": "contracts/FilForwarder.sol",
  "abi": [
    {
      "inputs": [
        {
          "internalType": "int256",
          "name": "errorCode",
          "type": "int256"
        }
      ],
      "name": "ActorError",
      "type": "error"
    },
    {
      "inputs": [],
      "name": "FailToCallActor",
      "type": "error"
    },
    {
      "inputs": [
        {
          "internalType": "bytes",
          "name": "addr",
          "type": "bytes"
        }
      ],
      "name": "InvalidAddress",
      "type": "error"
    },
    {
      "inputs": [],
      "name": "InvalidAddress",
      "type": "error"
    },
    {
      "inputs": [
        {
          "internalType": "uint64",
          "name": "",
          "type": "uint64"
        }
      ],
      "name": "InvalidCodec",
      "type": "error"
    },
    {
      "inputs": [],
      "name": "InvalidResponseLength",
      "type": "error"
    },
    {
      "inputs": [
        {
          "internalType": "uint256",
          "name": "balance",
          "type": "uint256"
        },
        {
          "internalType": "uint256",
          "name": "value",
          "type": "uint256"
        }
      ],
      "name": "NotEnoughBalance",
      "type": "error"
    },
    {
      "inputs": [
        {
          "internalType": "bytes",
          "name": "destination",
          "type": "bytes"
        }
      ],
      "name": "forward",
      "outputs": [],
      "stateMutability": "payable",
      "type": "function"
    }
  ],
  "bytecode": "0x608060405234801561001057600080fd5b5061092b806100206000396000f3fe60806040526004361061001e5760003560e01c8063d948d46814610023575b600080fd5b610036610031366004610638565b610038565b005b600061007983838080601f01602080910402602001604051908101604052809392919081815260200183838082843760009201919091525061008a92505050565b905061008581346100ec565b505050565b60408051602081019091526060815260408051602081019091528281526100b08161014d565b6100e6576040517fe6c4247b00000000000000000000000000000000000000000000000000000000815260040160405180910390fd5b92915050565b8151604080516000808252602082019092529091610110918390819086600061034b565b90508051600014610085576040517f0e74990700000000000000000000000000000000000000000000000000000000815260040160405180910390fd5b60008160000151600081518110610166576101666106d9565b01602001517fff000000000000000000000000000000000000000000000000000000000000001660000361019e57505151600a101590565b815180516000906101b1576101b16106d9565b6020910101517fff00000000000000000000000000000000000000000000000000000000000000167f0100000000000000000000000000000000000000000000000000000000000000148061025f575081518051600090610214576102146106d9565b6020910101517fff00000000000000000000000000000000000000000000000000000000000000167f0200000000000000000000000000000000000000000000000000000000000000145b1561026d5750515160151490565b81518051600090610280576102806106d9565b01602001517fff00000000000000000000000000000000000000000000000000000000000000167f0300000000000000000000000000000000000000000000000000000000000000036102d65750515160311490565b815180516000906102e9576102e96106d9565b01602001517fff00000000000000000000000000000000000000000000000000000000000000167f040000000000000000000000000000000000000000000000000000000000000003610340575051516040101590565b505151610100101590565b606060028751101561039457866040517f370d875f00000000000000000000000000000000000000000000000000000000815260040161038b9190610776565b60405180910390fd5b47838110156103d9576040517f8f0f4206000000000000000000000000000000000000000000000000000000008152600481018290526024810185905260440161038b565b60008073fe000000000000000000000000000000000000038987876103ff576000610402565b60015b8b8b8f60405160200161041a96959493929190610790565b604080517fffffffffffffffffffffffffffffffffffffffffffffffffffffffffffffffe081840301815290829052610452916107ea565b600060405180830381855af49150503d806000811461048d576040519150601f19603f3d011682016040523d82523d6000602084013e610492565b606091505b5091509150816104ce576040517f8a7db5bf00000000000000000000000000000000000000000000000000000000815260040160405180910390fd5b6104d7816104e5565b9a9950505050505050505050565b60606000806000848060200190518101906105009190610806565b9194509250905067ffffffffffffffff82166105545780511561054f576040517f0e74990700000000000000000000000000000000000000000000000000000000815260040160405180910390fd5b6105f5565b67ffffffffffffffff821660511480610577575067ffffffffffffffff82166071145b156105b757805160000361054f576040517f0e74990700000000000000000000000000000000000000000000000000000000815260040160405180910390fd5b6040517ff1f6bced00000000000000000000000000000000000000000000000000000000815267ffffffffffffffff8316600482015260240161038b565b8215610630576040517fd4bb66710000000000000000000000000000000000000000000000000000000081526004810184905260240161038b565b949350505050565b6000806020838503121561064b57600080fd5b823567ffffffffffffffff8082111561066357600080fd5b818501915085601f83011261067757600080fd5b81358181111561068657600080fd5b86602082850101111561069857600080fd5b60209290920196919550909350505050565b7f4e487b7100000000000000000000000000000000000000000000000000000000600052604160045260246000fd5b7f4e487b7100000000000000000000000000000000000000000000000000000000600052603260045260246000fd5b60005b8381101561072357818101518382015260200161070b565b50506000910152565b60008151808452610744816020860160208601610708565b601f017fffffffffffffffffffffffffffffffffffffffffffffffffffffffffffffffe0169290920160200192915050565b602081526000610789602083018461072c565b9392505050565b600067ffffffffffffffff8089168352876020840152808716604084015280861660608401525060c060808301526107cb60c083018561072c565b82810360a08401526107dd818561072c565b9998505050505050505050565b600082516107fc818460208701610708565b9190910192915050565b60008060006060848603121561081b57600080fd5b83519250602084015167ffffffffffffffff808216821461083b57600080fd5b60408601519193508082111561085057600080fd5b818601915086601f83011261086457600080fd5b815181811115610876576108766106aa565b604051601f82017fffffffffffffffffffffffffffffffffffffffffffffffffffffffffffffffe0908116603f011681019083821181831017156108bc576108bc6106aa565b816040528281528960208487010111156108d557600080fd5b6108e6836020830160208801610708565b8095505050505050925092509256fea2646970667358221220bcdf26629bc456bdf86593b5dde189893138c41bfa101e5be0eb6f66c9610cc564736f6c63430008110033",
  "linkReferences": {},
  "deployedLinkReferences": {}
}